:020000040800F2
:1000000010090020250100086503000867030008A7
:100010006B0300086F030008730300080000000072
:10002000000000000000000000000000770300084E
:1000300079030008000000007B0300087D0300082E
:100040003F0100083F0100083F0100083F01000890
:100050003F0100083F0100083F0100083F01000880
:100060003F0100083F0100083F0100083F01000870
:100070003F0100083F0100083F0100083F01000860
:100080003F0100083F0100083F0100083F01000850
:100090003F0100083F0100083F0100083F01000840
:1000A0003F0100083F0100083F0100083F01000830
:1000B0003F010008A52800083F0100083F01000893
:1000C0003F0100083F0100083F0100083F01000810
:1000D0003F0100085D2800083F0100083F010008BB
:1000E0003F0100083F0100083F010008DFF810D081
:1000F00002F00CFC004800478F010008AFF30080BD
:1001000010090020EFF30980704780F309887047D9
:10011000EFF30880704780F30888704740BA704753
:10012000C0BA70470648804706480047FEE7FEE72A
:10013000FEE7FEE7FEE7FEE7FEE7FEE7FEE7FEE797
:10014000F5030008ED00000870B5044620683E493C
:100150000840B0F1005F07D165682E462068FFF7C0
:10016000DAFFB047012070BD0020FCE710B537A0D2
:1001700002F0DEFB3EA002F0DBFB42A002F0D8FB67
:1001800046A002F0D5FB4AA002F0D2FB10BD00252C
:1001900002F090F902F041FAFFF7E8FF4EA002F0FA
:1001A000C7FB4FE002F0D3FA0446062C48D2DFE842
:1001B00004F03D0347172B33642002F058FA6D1CFE
:1001C000322D0CDB4848FFF7BFFF40B947A002F0D3
:1001D000AFFBFFF7CBFF0025012002F0B5FA30E0BE
:1001E00046A002F0A5FB4048FFF7AEFF40B93FA094
:1001F00002F09EFBFFF7BAFF0025012002F0A4FAEF
:1002000041A002F095FB1CE044A002F091FB4FF4EA
:100210007A7002F02CFA14E041A002F089FBFFF79B
:10022000A5FF0025012002F08FFA0AE048A002F0A5
:100230007FFBFFF79BFF0025012002F085FA00E01D
:1002400000BF00BFAEE700000000FE2F2D2D2D2DBA
:100250002D2D2D2D2D2D4775616E4A696E2054452B
:1002600043482D2D2D2D2D2D2D2D2D2D0D0A00002A
:100270005B315D2E53746172742070726F677261AE
:100280006D0D0A005B325D2E5570646174652070DF
:10029000726F6772616D0D0A000000005B335D2EA6
:1002A00053657420706172616D657465720D0A002A
:1002B0002D2D2D2D2D2D2D2D2D2D2D2D2D2D2D2D6E
:1002C0002D2D2D2D2D2D2D2D2D2D2D2D2D2D2D2D5E
:1002D0002D2D0D0A00000000656E74657220424FDE
:1002E0004F540D0A00000000004000084E6F2070BF
:1002F000726F6772616D0D0A0000000073746172A5
:1003000074206170700D0A007374617274206170E2
:1003100070206661696C65640D0A0000430D0A0077
:10032000726573657276656420666F72207365749A
:1003300020616464722C7768696C65206E6F74202C
:10034000737570706F7274206E6F770D0A00000005
:100350000D0A55706461746520737563636573730A
:100360000D0A0000704700BFFEE700BFFEE700BFB8
:10037000FEE700BFFEE77047704770477047000018
:1003800038B504460020009000F0B0FD012000F0D8
:1003900032FE5448006800F00200009000980228E5
:1003A00025D1102000F02AF9022000F013F90020D6
:1003B00000F041FE002000F050FE4FF4806000F09D
:1003C00043FE2146002000F019FE012000F022FE2D
:1003D00000BF392000F0CDFD0028FAD0022000F047
:1003E0001CFE00BF00F022FE0828FBD101E000BF88
:1003F000FEE738BD3B48006840F00100394908601D
:100400000846406848600846406840F4E01048608C
:100410000846406848600846006840F08070086000
:1004200000BF3048006800F000700028F9D02D4867
:10043000406820F003002B4948600846406840F0BF
:100440000200486000BF2748406800F00C00082800
:10045000F9D1704710B5002100200022214B5B68C4
:1004600003F00C0121B1042906D0082928D107E0A6
:100470001D4B1E4C236027E01B4B1C4C236023E0CC
:10048000184B5B6803F47010164B5B6803F4803202
:10049000022303EB904022B9154B4343134C2360D6
:1004A0000DE0104B5B6803F4003323B1104B434362
:1004B0000E4C236003E00C4B43430C4C236003E0E1
:1004C000094B0A4C236000BF00BF064B5B68C3F3B7
:1004D0000313084CE15C054B1B68CB40034C2360C5
:1004E00010BD70470010024000127A00000000208A
:1004F00000093D000400002031490143314A1160E8
:10050000704770B5002100230F22C47804B32D4C2E
:10051000246804F4E064C4F5E064210AC1F1040332
:10052000CA40447804FA03F1847814402143090155
:10053000254C0678A155047804F01F050124AC4031
:1005400005786D11AD0005F1E025C5F8004109E021
:10055000047804F01F050124AC401C4D0678761188
:1005600045F8264070BD1A4A0A400243154B1B1F2E
:100570001A60704739B1134A121D12680243114BB9
:100580001B1D1A6006E00F4A121D126882430D4BB4
:100590001B1D1A607047042808D14FF0E02109693B
:1005A00041F004014FF0E022116107E04FF0E0213B
:1005B000096921F004014FF0E02211617047000049
:1005C0000000FA050CED00E000E400E080E100E04E
:1005D00080FFFF1F01460020FE4A106800F038002F
:1005E000084310607047FB49096821F00801F94A87
:1005F000116011460968014311607047F5490968A7
:1006000021F01001F34A116011460968014311609D
:100610007047F148EF494860F04848607047EE483D
:10062000EC494860ED4848607047EA48006940F08E
:100630008000E84908617047E648006940F08000A2
:10064000E449086170470420E249C96801F00101EA
:1006500009B101200EE0DF49C96801F0040109B1C8
:10066000022007E0DB49C96801F0100109B103204D
:1006700000E00420704700B502460423FFF7E3FFC3
:10068000034603E0FFF7DFFF0346521E012B01D1B3
:10069000002AF7D102B90523184600BD30B504463B
:1006A00004254FF43020FFF7E6FF0546042D17D14F
:1006B000C848006940F00200C64908610846446124
:1006C000006940F0400008614FF43020FFF7D3FF8D
:1006D0000546C048006941F6FD710840BD49086102
:1006E000284630BD10B504244FF43020FFF7C3FF77
:1006F0000446042C16D1B748006940F00400B549FF
:1007000008610846006940F0400008614FF430205D
:10071000FFF7B1FF0446AF48006941F6FB7108409E
:10072000AC490861204610BD00B502460423FFF71E
:100730008AFF034603E0FFF786FF0346521E012BA4
:1007400001D1002AF7D102B90523184600BD10B522
:1007500004244FF43020FFF7E7FF0446042C16D1A1
:100760009C48006940F004009A4908610846006905
:1007700040F0400008614FF43020FFF7D5FF0446F9
:100780009448006941F6FB7108409249086120468F
:1007900010BD00208F49C96901F0020109B1012093
:1007A00000E00020704730B5A5250424FFF7F1FFD5
:1007B00000B100254FF43020FFF75DFF0446042C04
:1007C0003AD1854883498860844888600846006932
:1007D00040F0200008610846006940F040000861D0
:1007E0004FF43020FFF747FF0446042C1BD1794813
:1007F000006941F6DF7108407649086108460069E2
:1008000040F01000086176480580E002FFF733FFF2
:100810000446052C10D06F48006941F6EF7108407E
:100820006C49086108E0052C06D06A48006941F669
:10083000EF71084067490861204630BD78B506462B
:100840000C46042500200090E802FFF714FF05463F
:10085000042D24D15F48006940F001005D49086122
:100860003480E802FFF707FF0546042D10D1B01CC5
:100870000090200C00990880E802FFF7FCFE054676
:100880005448006941F6FE7108405249086106E08B
:100890005048006941F6FE7108404E4908612846FB
:1008A00078BD70B504460D460426F002FFF7E3FE5E
:1008B0000646042E11D14748006940F00100454921
:1008C00008612580F002FFF7D6FE06464148006920
:1008D00041F6FE7108403F490861304670BD70B571
:1008E00005460E460424E002FFF7C5FE0446042C2C
:1008F00017D1394837498860384888600846006908
:1009000040F0100008612E80E002FFF7B4FE0446BC
:10091000052C06D02F48006941F6EF7108402D499B
:100920000861204670BD2DE9F04304464FF6FF767E
:100930003746B046B1460425E443E6B2C4F3072780
:10094000C4F307484FEA1469E802FFF794FE05462E
:10095000042D49D120481F498860204888600846F6
:10096000006940F010000861FF2E06D01C480830D6
:100970000680E802FFF77FFE0546042D08D1FF2F11
:1009800006D017480A300780E802FFF774FE0546D4
:10099000042D0AD1B8F1FF0F07D011480C30A0F890
:1009A0000080E802FFF767FE0546042D0AD1B9F181
:1009B000FF0F07D00A480E30A0F80090E802FFF7BA
:1009C0005AFE0546052D0FD00248006941F6EF7129
:1009D000084007E00020024023016745AB89EFCDC6
:1009E00000F8FF1F664908612846BDE8F08330B56E
:1009F000054604244FF43020FFF73DFE0446042C46
:100A000041D160485E4988605F4888600846006957
:100A100040F0200008610846006940F0400008618D
:100A20004FF43020FFF727FE0446042C22D154480F
:100A3000006941F6DF7108405149086108460069C4
:100A400040F0100008611DB100205049088002E00C
:100A5000A5204E4908804FF43020FFF70CFE0446D5
:100A6000052C10D04648006941F6EF710840444912
:100A7000086108E0052C06D04148006941F6DF71A5
:100A800008403F490861204630BDF0B505460E4696
:100A9000174604243B483A4988603B488860E00296
:100AA000FFF7E9FD0446042C19D13548006940F0F0
:100AB00010003349086147F0F800304328433349B8
:100AC000891C0880E002FFF7D6FD0446052C06D0FD
:100AD0002B48006941F6EF7108402949086120461A
:100AE000F0BD2748C069800870472548006A7047F4
:100AF00000202349096801F0200109B1012000E02C
:100B00000020704729B11E4A126902431C4B1A612A
:100B100004E01B4A12698243194B1A61704701466F
:100B20000020012908D1164AD26902F001020AB157
:100B3000012008E0002006E0114AD2680A400AB10C
:100B4000012000E0002070470D49C8607047042074
:100B50000B49C96801F0010109B101200EE0084903
:100B6000C96801F0040109B1022007E00449C9681D
:100B700001F0100109B1032000E0042070470000DB
:100B80000020024023016745AB89EFCD00F8FF1F2D
:100B900010B50446CC48844208D10121042000F05D
:100BA0002DFB0021042000F029FB46E0C7488442C9
:100BB00008D10121082000F021FB0021082000F0CD
:100BC0001DFB3AE0C248844208D10121102000F008
:100BD00015FB0021102000F011FB2EE0BD488442DF
:100BE00008D10121202000F009FB0021202000F085
:100BF00005FB22E0B848844208D10121402000F0E2
:100C0000FDFA0021402000F0F9FA16E0B3488442D2
:100C100008D10121802000F0F1FA0021802000F0AD
:100C2000EDFA0AE0AE48844207D10121801500F0B8
:100C3000E5FA0021A01500F0E1FA10BD10B5012180
:100C4000084600F0DBFA0021012000F0D7FA10BDC1
:100C50002DE9F04102460025002600200023002453
:100C6000002791F803C00CF00F0591F803C00CF0B9
:100C7000100CBCF1000F03D091F802C04CEA05053E
:100C800091F800C0BCF1000F31D0146800202BE0B7
:100C90004FF0010C0CFA00F3B1F800C00CEA0306A7
:100CA0009E4220D183004FF00F0C0CFA03F7BC4397
:100CB00005FA03FC4CEA040491F803C0BCF1280FC8
:100CC00006D14FF0010C0CFA00FCC2F814C00AE087
:100CD00091F803C0BCF1480F05D14FF0010C0CFA9C
:100CE00000FCC2F810C0401C0828D1D31460B1F831
:100CF00000C0BCF1FF0F34DD546800202EE000F18D
:100D0000080C4FF0010808FA0CF3B1F800C00CEA27
:100D100003069E4221D183004FF00F0C0CFA03F71B
:100D2000BC4305FA03FC4CEA040491F803C0BCF18F
:100D3000280F05D100F1080C08FA0CF8C2F814804D
:100D400091F803C0BCF1480F07D100F1080C4FF037
:100D5000010808FA0CF8C2F81080401C0828CED30D
:100D60005460BDE8F0814FF6FF710180022181706F
:100D70000421C17070470246002093680B400BB1FC
:100D8000012000E0002070470146886880B270476B
:100D900002460020D3680B400BB1012000E0002088
:100DA00070470146C86880B2704701617047416171
:100DB00070470AB1016100E041617047C16070474E
:100DC0004FF480320A438261816182618269826963
:100DD000704702460020434B18684FF68073184056
:100DE00040EA021008433F4B186070473E49C86113
:100DF0007047F0B50A46002300240021002500F0CA
:100E00000046B6F1004F02D1364EF16901E0354E91
:100E10007168C0F3034583B200F44016B6F5401F75
:100E200008D121F070612F4E766826F070662D4F44
:100E30007E6012E000F48016B6F5801F06D103260E
:100E400006FA05F4A14341F0706106E0460D360153
:100E500003FA06F6B14341F0706122B1460D360146
:100E600003FA06F6314300F00046B6F1004F02D116
:100E70001C4EF16101E01B4E7160F0BD30B50022E7
:100E80008B071C0F0F2303FA04F2164B08338C1048
:100E900053F824309343134C08348D1044F8253014
:100EA00023468C1053F824308C07240F00FA04F4E6
:100EB00023430C4C08348D1044F8253030BD0A49CA
:100EC000DC3108607047000000080140000C014060
:100ED000001001400014014000180140001C0140B6
:100EE000002001400000014000002042DF4800686F
:100EF00040F00100DD49086008464068DC490840D0
:100F0000DA49486008460068DA490840D74908606D
:100F10000846006820F4802008600846406820F4F5
:100F2000FE0048604FF41F0088607047CF49096891
:100F300021F48031CD4A11601146096821F48021E5
:100F40001160B0F5803F03D0B0F5802F0ED106E0E0
:100F5000C649096841F48031C44A116007E0C349B9
:100F6000096841F4A021C14A116000E000BF00BF40
:100F7000704710B501460022002300204A11012AC3
:100F800002D1BA4C236806E0022A02D1B74C236A88
:100F900001E0B64C636A01F01F02012494401C403A
:100FA0000CB1012000E0002010BD38B500200090F9
:100FB0000024002500BF3120FFF7DBFF0546009825
:100FC000401C00900098B0F5A06F01D0002DF2D029
:100FD0003120FFF7CEFF08B1012400E000242046B5
:100FE00038BD01460020A14A106820F0F80040EA10
:100FF000C10010607047A049086070470246002099
:101000009A4B586820F47C1042EA01031843974B2E
:101010005860704798490866704701460020934A17
:10102000506820F003000843506070478F484068C4
:1010300000F00C007047014600208C4A506820F0F8
:10104000F00008435060704701460020874A50680E
:1010500020F4E06008435060704701460020834A56
:10106000506820F4605040EAC1005060704729B1D8
:101070007E4A527A02437D4B5A7204E07B4A527A8E
:1010800082437A4B5A7270477B49D8310860704767
:1010900001460020754A506820F4404008435060E3
:1010A00070470021714A20321170704A82F8201076
:1010B000012802D004280AD104E001216B4A203221
:1010C000117005E00521694A2032117000E000BF6F
:1010D00000BF70476949086070476449096A014365
:1010E000624A11627047654944390860704730B5FB
:1010F00000210022002400235C4D6D6805F00C01E6
:1011000021B1042905D0082923D105E05C4D0560F3
:1011100022E05B4D05601FE0544D6D6805F47012D0
:10112000524D6D6805F48034022505EB92421CB9DE
:10113000544D554305600BE04C4D6D6805F400358A
:101140001DB1504D5543056002E04D4D55430560BE
:1011500002E04B4D056000BF00BF444D6D6805F0D7
:10116000F0010909484D6B5C0568DD4045603F4D65
:101170006D6805F4E061090A434D6B5C4568DD402C
:1011800085603A4D6D6805F46051C90A3E4D6B5C4F
:101190004568DD40C560354D6D6805F44041890BFB
:1011A0003A4D6B5CC568B5FBF3F5056130BD29B1FF
:1011B0002E4A526902432D4B5A6104E02B4A526970
:1011C00082432A4B5A61704729B1284A92690243E7
:1011D000264B9A6104E0254A92698243234B9A6127
:1011E000704729B1214AD2690243204BDA6104E0F9
:1011F0001E4AD26982431D4BDA61704729B11B4AEE
:10120000D2680243194BDA6004E0184AD26882437C
:10121000164BDA60704729B1144A12690243134B26
:101220001A6104E0114A12698243104B1A61704737
:1012300012494039086070470F49C86470470B492C
:10124000C87170470948406A40F080700749486299
:10125000704701460020054A92680A400AB1012001
:1012600000E000207047014988727047001002407A
:101270000000FFF8FFFFF6FE0000424280044242F9
:1012800000127A0000093D00140000202400002014
:1012900010B50446FE48844208D10121C014FFF76E
:1012A000ADFF0021E014FFF7A9FFC4E0B4F1804FC7
:1012B00008D101210846FFF7AEFF00210120FFF70A
:1012C000AAFFB8E0F348844208D101210220FFF7C9
:1012D000A2FF00210220FFF79EFFACE0EE4884420F
:1012E00008D101210420FFF796FF00210420FFF719
:1012F00092FFA0E0E948844208D101210820FFF7CD
:101300008AFF00210820FFF786FF94E0E44884422A
:1013100008D101211020FFF77EFF00211020FFF7E8
:101320007AFF88E0DF48844208D101212020FFF7BE
:1013300072FF00212020FFF76EFF7CE0DA48844234
:1013400008D101214014FFF759FF00216014FFF775
:1013500055FF70E0D548844209D10121C804FFF748
:101360004DFF00214FF40020FFF748FF63E0D04815
:10137000844209D101210805FFF740FF00214FF405
:101380008010FFF73BFF56E0CA48844209D1012193
:101390004805FFF733FF00214FF40010FFF72EFF41
:1013A00049E0C548844208D101214020FFF733FFBE
:1013B00000214020FFF72FFF3DE0C048844208D1C4
:1013C00001218020FFF727FF00218020FFF723FF66
:1013D00031E0BB48844208D101218015FFF71BFF93
:1013E0000021A015FFF717FF25E0B648844209D178
:1013F00001210804FFF702FF00214FF48030FFF7BE
:10140000FDFE18E0B048844209D101214804FFF7ED
:10141000F5FE00214FF40030FFF7F0FE0BE0AB4883
:10142000844208D101218804FFF7E8FE00214FF42F
:101430008020FFF7E3FE10BD00220288944B984203
:101440000ED0994B98420BD0B0F1804F08D0914B01
:10145000984205D0904B984202D0904B984204D1CC
:101460004FF68F731A404B881A438D4B984207D022
:101470008C4B984204D04FF6FF431A40CB881A4356
:1014800002808B8883850B880385814B98420BD023
:10149000854B984208D08B4B984205D08A4B984296
:1014A00002D08A4B984201D10B7A038601238382B2
:1014B000704770B5002400220023058C4FF6FE769D
:1014C00035400584028C8388048B4FF68F752C4041
:1014D000B51E2C400D882C43751E2A400D892A43C9
:1014E0004D882A436A4DA8420BD06F4DA84208D0C0
:1014F000744DA84205D0744DA84202D0734DA84245
:1015000013D14FF6F7752A404D892A434FF6FB75E4
:101510002A408D882A434FF6FF652B404FF6FF5532
:101520002B408D892B43CD892B4383800483CD8829
:101530008586028470BD70B5002400220023058CCE
:101540004FF6EF7635400584028C8388048B48F68D
:10155000FF752C404FF6FF452C400D884FF6FF7667
:1015600006EA05252C434FF6DF752A400D8906EA69
:1015700005152A434D8806EA05152A43444DA8421D
:1015800002D0494DA8421DD14FF67F752A404D89A2
:101590004FF6FF7606EA05152A434FF6BF752A4037
:1015A0008D8806EA05152A434FF6FF352B404FF28A
:1015B000FF752B408D8906EA85052B43CD8906EA08
:1015C00085052B4383800483CD880587028470BD05
:1015D00070B5002400220023058C4FF6FF663540CD
:1015E0000584028C8388848B4FF68F752C404FF6D0
:1015F000FC752C400D882C434FF6FF552A400D8971
:101600004FF6FF7606EA05252A434D8806EA0525AA
:101610002A431F4DA84202D0234DA8421DD14FF2AC
:10162000FF752A404D894FF6FF7606EA05252A43C5
:101630004FF6FF352A408D8806EA05252A434EF6E7
:10164000FF752B404DF6FF752B408D8906EA051579
:101650002B43CD8906EA05152B4383808483CD88EF
:101660008587028470BD70B5002200230024058C9C
:101670004EF6FF7635400584038C8488828B48F6CD
:10168000FF752A404FF6FF452A400D8820E00000F4
:10169000002C01400004004000080040000C004005
:1016A000001000400014004000340140004C014094
:1016B000005001400054014000180040001C004050
:1016C000002000400040014000440140004801402B
:1016D0004FF6FF7606EA05252A434DF6FF752B40A7
:1016E0000D8906EA05352B434D8806EA05352B435F
:1016F000FA4DA84202D0FA4DA84208D14BF6FF7528
:101700002C408D894FF6FF7606EA85152C438480A0
:101710008283CD88A0F84050038470BD828B4FF245
:10172000FF331A408283828B4FF6FF7303EA012353
:101730001A4382837047F0B50C46154600220021FB
:101740000026078C4EF6FF7C07EA0C070784828B85
:10175000018C4FF6FF7707EA043640F6FF473A4020
:101760004FF6FF7707EA05273A434FF6FF7707EA78
:1017700003373A43D94FB8420ED0D94FB8420BD0B5
:10178000B0F1804F08D0D74FB84205D0D64FB842FD
:1017900002D0D64FB84206D14DF6FF77394046F415
:1017A0008057394305E047F6FF57394044F48057E6
:1017B000394382830184F0BD828B4FF6F3731A4064
:1017C0008283828B0A4382837047F0B50C461546AC
:1017D000002200210026078C4FF6FF6C07EA0C0759
:1017E0000784828B018C4FF6FF7707EA04264FF6B9
:1017F0000C773A404FF6FF7707EA03172F433A4337
:10180000B64FB8420ED0B64FB8420BD0B0F1804FB1
:1018100008D0B44FB84205D0B34FB84202D0B34F4E
:10182000B84206D14FF6FF57394046F48077394326
:1018300005E04FF2FF57394044F480773943828303
:101840000184F0BD028B4FF2FF331A400283028BFA
:101850004FF6FF7303EA01231A4302837047F0B582
:101860000C461546002200210026078C4FF6EF7C1F
:1018700007EA0C070784028B018C4FF6FF7707EA13
:10188000041640F6FF473A404FF6FF7707EA033762
:101890003A434FF6FF7707EA05273A438F4FB8429E
:1018A0000ED08F4FB8420BD0B0F1804F08D08D4F83
:1018B000B84205D08C4FB84202D08C4FB84206D106
:1018C0004FF6DF77394046F01007394305E04FF611
:1018D0005F77394044F01007394302830184F0BD3B
:1018E000028B4FF6F3731A400283028B0A43028382
:1018F0007047F0B50C46154600220021068C4FF6C5
:10190000FE773E400684028B018C4FF60C76324007
:101910007E1C06EA03162E433243704EB0420ED0B0
:101920006F4EB0420BD0B0F1804F08D06D4EB04238
:1019300005D06D4EB04202D06C4EB04206D14FF68B
:10194000FD76314044F00106314305E04FF6F5766F
:10195000314044F00106314302830184F0BD70B58B
:1019600005460C465D4885420ED05D4885420BD049
:10197000B5F1804F08D05B48854205D05A48854272
:1019800002D05A48854200D100E000BF208850B9FB
:101990002389A28861882846FFF7ABFFE1882846A3
:1019A000FFF79EFF25E0208804280AD12389A2881A
:1019B00061882846FFF753FFE1882846FFF742FF7A
:1019C00017E0208808280AD12389A2886188284640
:1019D000FFF7FBFEE1882846FFF7EEFE09E02389CA
:1019E000A28861882846FFF7A6FEE1882846FFF70F
:1019F00095FE70BD2DE9F04105460C4600260127F5
:101A0000608808B9022600E00026A088012801D1DC
:101A1000022700E001272088A0B92389A2886188D5
:101A20002846FFF766FFE1882846FFF759FF23891C
:101A30003A4631462846FFF712FFE1882846FFF76D
:101A400001FF13E02389A28861882846FFF707FF7A
:101A5000E1882846FFF7F6FE23893A4631462846B4
:101A6000FFF747FFE1882846FFF73AFFBDE8F0811E
:101A70000A884B881A438B881A43CB881A430B89F0
:101A80001A434B891A438B891A43A0F844207047A4
:101A90004FF6FF71818000210180C1804180017279
:101AA00070470021018041808180C1800181418196
:101AB0008181C181704700210180418001218180A5
:101AC0000021C18001817047002101804180818017
:101AD000C18001814181818170470000002C01405B
:101AE000003401400004004000080040000C0040A9
:101AF00021B1028842F00102028004E002884FF620
:101B0000FE731A400280704731B1B0F8442042F4AD
:101B10000042A0F8442005E0B0F84420C2F30E02D1
:101B2000A0F8442070471AB183890B43838102E0F7
:101B300083898B43838170478182704741EA020326
:101B4000A0F8483070471AB183890B43838102E0C3
:101B500083898B438381704701894FF6F872114066
:101B6000018170470A46002101894FF68F731940A1
:101B700011430181704730B504460D462946204681
:101B8000FFF7F0FF208940F00700208130BD2DE9EC
:101B9000F04104460D4616461F46602D06D13B46D1
:101BA000012231462046FFF75AFE05E03B4601225E
:101BB00031462046FFF79DFE29462046FFF7D2FF1B
:101BC000208940F007002081BDE8F08130B50C4647
:101BD00000210189C9B24FF6FF7505EA03251543B7
:101BE00025432943018130BD2DE9F04105460E46CC
:101BF00017469846002443463A4631462846FFF7A2
:101C0000E5FF2C894FF6F870044044F007044FF6C6
:101C10008F70044044F070042C81BDE8F081F0B571
:101C200004460D4616461F463B4632462946204688
:101C3000FFF7CCFF208940F480402081F0BD018572
:101C4000828270470A46002101884FF68F7319403F
:101C5000114301807047F0B50C4615461E46002121
:101C6000002200230189028B038C4FF6F87739405C
:101C700021434FF6FC473A4040F201173A434FF6F2
:101C8000DD773B404FF6FF7707EA06172F433B43CC
:101C9000018102830384F0BD0A460021018B4FF6C7
:101CA0008F7319401143018370470A460021018B4D
:101CB00048F6FF7319404FF6FF7303EA02231943F6
:101CC000018370470A460021818B4FF68F731940BC
:101CD0001143818370470A460021818B48F6FF73C8
:101CE00019404FF6FF7303EA0223194381837047BB
:101CF00021B1028842F08002028004E002884FF69F
:101D00007F731A400280704721B1828842F004023A
:101D1000828004E082884FF6FB731A40828070470D
:101D200021B1828842F00802828004E082884FF666
:101D3000F7731A408280704721B1828842F0010215
:101D4000828004E082884FF6FE731A4082807047DA
:101D50000A460021018B4FF6F773194011430183A6
:101D600070470A460021018B4FF2FF7319404FF66E
:101D7000FF7303EA02231943018370470A460021D7
:101D8000818B4FF6F77319401143818370470A46E0
:101D90000021818B4FF2FF7319404FF6FF7303EA66
:101DA00002231943818370470A460021018B4FF6B5
:101DB000FB7319401143018370470A460021018BD0
:101DC0004FF6FF3319404FF6FF7303EA022319431E
:101DD000018370470A460021818B4FF6FB7319403F
:101DE0001143818370470A460021818B4FF6FF33F0
:101DF00019404FF6FF7303EA0223194381837047AA
:101E00000A460021018B4FF67F731940114301836D
:101E100070470A460021018BC1F30E014FF6FF7394
:101E200003EA02231943018370470A460021818B8C
:101E30004FF67F7319401143818370470A46002192
:101E4000818BC1F30E014FF6FF7303EA022319439E
:101E5000818370470A460021018C4FF6FD731940BB
:101E60001143018470470A460021018C4FF6F77335
:101E700019401143018470470A460021018C4FF636
:101E8000DF7319404FF6FF7303EA0213194301840D
:101E900070470A460021018C4FF67F7319404FF6B8
:101EA000FF7303EA02131943018470470A460021B5
:101EB000018C4FF6FF5319404FF6FF7303EA0223DC
:101EC0001943018470470A460021018C4FF2FF73C9
:101ED00019404FF6FF7303EA022319430184704748
:101EE0000A460021018C4DF6FF7319404FF6FF732F
:101EF00003EA023319430184704730B500230124FB
:101F00008C40A3B2048C9C430484048C02FA01F537
:101F1000ADB22C43048430BD30B5002304248C4082
:101F2000A3B2048C9C430484048C02FA01F5ADB284
:101F30002C43048430BD70B50346002000241846AD
:101F4000183001258D40ACB21D8CA5431D8409B10C
:101F5000082909D100EB6100056825F070050560CE
:101F60000568154305600EE00D1FC5F34E052844B6
:101F7000056825F4E045056005684FF6FF7606EA3A
:101F800002263543056070BD21B1028842F002028D
:101F9000028004E002884FF6FD731A400280704709
:101FA00021B1028842F00402028004E002884FF668
:101FB000FB731A400280704721B1828842F0800290
:101FC000828004E082884FF67F731A4082807047D7
:101FD00002884FF6F7731A40028002880A43028093
:101FE000704782884FF68F731A40828082880A4336
:101FF0008280704702894FF6F8731A400281028985
:102000000A430281704702894FF67F731A400281AA
:1020100002890A4302817047818470478185704735
:10202000818670470187704781877047A0F840100C
:10203000704702884FF6FF431A40028002880A4325
:10204000028070470146888E70470146088F7047AE
:102050000146888F70470146B1F84000704701463D
:10206000888C70470146088D704702460020138A0D
:102070000B400BB1012000E000207047CA430282F0
:10208000704730B50246002000230024158A05EA77
:102090000103958905EA010413B10CB1012000E0A8
:1020A000002030BDCA4302827047000010B50446CC
:1020B000FB48844209D101218803FFF79FF80021E2
:1020C0004FF48040FFF79AF832E0F648844209D195
:1020D00001214804FFF79FF800214FF40030FFF77B
:1020E0009AF825E0F048844209D101218804FFF7DD
:1020F00092F800214FF48020FFF78DF818E0EB48AC
:10210000844209D10121C804FFF785F800214FF46A
:102110000020FFF780F80BE0E548844208D1012158
:102120000805FFF778F800214FF48010FFF773F8E7
:1021300010BD2DE9F04786B005460E460024A246A4
:1021400000BFA1460027B08900B100BF2F462C8AEE
:102150004CF6FF700440F08804432C82AC894EF6A4
:10216000F3100440B088318908437189084304435F
:10217000AC81AC8A4FF6FF400440B0890443AC8286
:1021800001A8FEF7B4FFC648874202D1DDF810A0CF
:1021900001E0DDF80CA0A88900F4004040B10AEB92
:1021A000CA0000EB0A1031684900B0FBF1F807E003
:1021B0000AEBCA0000EB0A1031688900B0FBF1F8A5
:1021C0006420B8FBF0F004012009642101FB1089B0
:1021D000A88900F4004040B1322000EBC900B0FBF8
:1021E000F1F000F00700044308E0322000EB091092
:1021F0006421B0FBF1F000F00F0004432C8106B025
:10220000BDE8F0874FF41651016000218180C18044
:1022100001810C21418100218181704710B5024666
:102220000020108A4FF2FF0318400B884C8823438C
:102230008C882343CC8823431843108210BD00218F
:10224000018041808180C180704721B1828942F440
:102250000052828104E082894DF6FF731A40828128
:102260007047F0B50346002400260025002040F604
:102270006A17B94200D100BF1846C1F3421401F0F9
:102280001F06012707FA06F5012C01D10C3004E0E6
:10229000022C01D1103000E014301AB107682F432E
:1022A000076002E00768AF430760F0BD1AB1838A98
:1022B0000B43838202E0838A8B4383827047028AC6
:1022C0004FF6F0731A400282028A0A430282704774
:1022D00082894FF2FF731A40828182890A43828188
:1022E000704721B1828942F00202828104E0828932
:1022F0004FF6FD731A4082817047028A4FF6DF73F2
:102300001A400282028A0A430282704721B1028A7D
:1023100042F48042028204E0028A4BF6FF731A40C4
:1023200002827047C1F308028280704701468888A4
:10233000C0F308007047818941F001018181704735
:10234000028BD2B20283028B42EA012202837047DF
:10235000028B02F47F420283028B0A43028370479E
:1023600021B1828A42F02002828204E0828A4FF602
:10237000DF731A408282704721B1828A42F01002D4
:10238000828204E0828A4FF6EF731A40828270479D
:1023900021B1828A42F00802828204E0828A4FF6EA
:1023A000F7731A408282704721B1828942F4004259
:1023B000828103E08289C2F30E028281704721B1DB
:1023C000828A42F40062828204E0828A4FF2FF73C2
:1023D0001A4082827047828A4FF6FB731A408282CB
:1023E000828A0A438282704721B1828A42F00202C5
:1023F000828204E0828A4FF6FD731A40828270471F
:1024000002460020B1F5007F00D100BF13880B40C9
:102410000BB1012000E00020704701F40072B2F51A
:10242000007F00D100BFCA430280704770B50246EA
:10243000002400230025002040F66A16B14200D196
:1024400000BFC1F3421501F01F03012606FA03F392
:10245000012D02D19689334006E0022D02D1168A61
:10246000334001E0968A33400C12012606FA04F448
:102470001688344013B10CB1012000E0002070BD7B
:1024800010B50022002340F66A14A14200D100BF1B
:102490000A1201249440A3B2DC43048010BD000062
:1024A000003801400044004000480040004C00401B
:1024B0000050004000B587B0012144F20500FEF74E
:1024C00083FE4FF40060ADF8180010208DF81B005B
:1024D00003208DF81A0006A93148FEF7B9FB4FF426
:1024E0000070ADF8180018208DF81B0003208DF83F
:1024F0001A0006A92A48FEF7ABFB4FF48060ADF83E
:10250000180004208DF81B0006A92548FEF7A0FB43
:102510004FF4165002900020ADF80C00ADF80E00FC
:10252000ADF81000ADF814000C20ADF8120002A9AF
:102530001C48FFF7FEFD25208DF8040001208DF8D2
:10254000070000208DF8050001208DF8060001A885
:10255000FDF7D7FF012240F225511248FFF781FE17
:1025600001211048FFF771FE07B000BD70B50446A9
:102570000D464FF400600A4910310860E1B2094885
:10258000FFF7D0FE00BF80210648FFF739FF012882
:10259000F9D1C002024914310860204670BD000024
:1025A000000801400038014010B501210220FEF76B
:1025B00018FE10BD0EB501211E48FFF773FD42F253
:1025C0000F70ADF804004720ADF800000020ADF812
:1025D0000600ADF8020069461648FEF72DFF0121FE
:1025E0001448FFF75FFD012211461248FFF79BFADE
:1025F0000EBD08B54FF4C060FDF77EFF1D208DF8BD
:10260000000000208DF8010001208DF802008DF8F7
:1026100003006846FDF775FF08BD10B5FFF7C4FF5E
:10262000FFF7E7FF00210348FFF762FAFFF7C2FF59
:1026300010BD000000040040014601EBC1024FF054
:10264000E0235A6100229A6101221A6100BF4FF013
:10265000E022106900F001021AB100F48032002A71
:10266000F5D000224FF0E0231A619A6170470146CD
:1026700042F228324A434FF0E0235A6100229A6125
:1026800001221A6100BF4FF0E022106900F0010240
:102690001AB100F48032002AF5D000224FF0E02376
:1026A0001A619A61704770B505460E46FDF7B1FF95
:1026B000002409E005EB8420FDF7F0FF042801D099
:1026C000002070BD601CC4B2B442F3DBFDF7ADFF67
:1026D0000120F6E72DE9F04106460D4617464FF07A
:1026E0000008FDF796FF00240CE0285D29194978C1
:1026F00000EB01201FFA80F830194146FEF7D1F8AF
:10270000A01C84B2BC42F0D3FDF78FFFBDE8F0817E
:1027100070B504460D46164632462146284600F05E
:10272000E3F870BD10B5062169A000F001F910BDF5
:1027300010B5152166A000F0FBF810BD10B54321BF
:1027400063A000F0F5F810BD624908707047614958
:10275000087870475F49497809B95E49C86270478F
:1027600070B505462C785B48407830B101282BD0F5
:10277000022859D003286CD162E0012C12D102202A
:10278000544908705448486048683021FFF78BFF6F
:10279000FFF7C8FFFFF7D2FF4E484078401C4D4975
:1027A000487010E0312C03D103204A4908700AE038
:1027B000322C03D104204749087004E0332C02D1A5
:1027C00005204449087044E0012C01D0022C1DD1A1
:1027D000012C0BD13F4980224868E91CFFF77AFFA2
:1027E0003C48406880303B4948600CE039494FF430
:1027F00080624868E91CFFF76DFF3648406800F5C5
:10280000806034494860FFF78DFF0CE0042C07D14D
:10281000FFF78EFF2F484078401C2E49487002E099
:1028200000202C49487014E0042C08D1FFF77AFFEF
:10283000FFF784FF27484078401C2649487008E08D
:10284000012C05D1FFF76EFF002022494870087067
:1028500000BF00BF0020A5F8B00470BD10B540F265
:1028600025511E48FFF7E2FDD8B140F225511B4823
:10287000FFF706FE1948FFF759FDC4B21848B0F833
:10288000B014B0F8B004401C154AA2F8B0041046C9
:102890004454002013490880012112482438FFF7CE
:1028A00027F910BD10B501210E482438FFF7E9FBC8
:1028B00001280CD101210B482438FFF7F3FB00213C
:1028C00008482438FFF714F90548FFF749FF10BD01
:1028D00025630D002800002000400008003801405A
:1028E0005C0000202404004040EA01039B0703D061
:1028F00009E008C9121F08C0042AFAD203E011F83F
:10290000013B00F8013B521EF9D27047064C074DBF
:1029100006E0E06840F0010394E8070098471034AF
:10292000AC42F6D3FDF7E6FB442A0008642A00080F
:102930000FB4054B10B503A9044A029800F017F82C
:1029400010BC5DF814FB00006D2500085800002045
:1029500002E008C8121F08C1002AFAD17047704768
:10296000002001E001C1121F002AFBD170472DE9B0
:10297000F84F9946924688460546002706E02528E6
:102980000AD051464A4690476D1C7F1C2878002883
:10299000F5D13846BDE8F88F002315F8011F184619
:1029A0002E2915D115F8011F04232A290DD06FF007
:1029B0002F022978A1F13004092C09D800EB8000FE
:1029C00002EB400008446D1CF3E758F8040B6D1C43
:1029D0002A78002ADDD0632A07D0732A0FD0104648
:1029E00051464A4690477F1C2AE018F8042B8DF880
:1029F000002000218DF801106E46012103E058F8F7
:102A0000046B4FF0FF315A074FF0000401D409E086
:102A1000641C84420BDA8C42FADB325D002AF7D167
:102A200005E0641C8C42FCDB305D0028F9D12744B2
:102A300004E016F8010B51464A469047641EF8D24E
:102A40006D1CA3E7642A0008000000205C00000061
:102A500050290008C02A00085C000020B4080000CB
:102A60006029000800127A00000000000000000049
:102A70000102030406070809000000000102030424
:102A80000102030406070809020406080100000009
:102A900000400008000000000000000000000000EE
:102AA0000000000000000000000000000000000026
:102AB0000000000000000000000000000000000016
:04000005080000ED02
:00000001FF
