Component: ARM Compiler 5.06 update 7 (build 960) Tool: armlink [4d3601]

==============================================================================

Section Cross References

    main.o(.text) refers to systick.o(.text) for SysTick_Init_Config
    main.o(.text) refers to usart.o(.text) for USART1_Init_Config
    main.o(.text) refers to led.o(.text) for LED_GPIO_Config
    main.o(.text) refers to rand.o(.text) for rand
    main.o(.text) refers to printf1.o(i.__0printf$1) for __2printf
    main.o(.text) refers to main.o(.data) for u16_rand
    stm32f10x_it.o(.text) refers to systick.o(.text) for SysTickDelayTime_Counter
    usart.o(.text) refers to stm32f10x_rcc.o(.text) for RCC_APB2PeriphClockCmd
    usart.o(.text) refers to stm32f10x_usart.o(.text) for USART_DeInit
    usart.o(.text) refers to stm32f10x_gpio.o(.text) for GPIO_Init
    usart.o(.text) refers to misc.o(.text) for NVIC_Init
    usart.o(.text) refers to usart.o(.data) for Usart1_R_Count
    usart.o(.text) refers to usart.o(.bss) for Usart1_R_Buff
    usart.o(.text) refers to stm32f10x_usart.o(.text) for USART_GetFlagStatus
    usart.o(.text) refers to stm32f10x_usart.o(.text) for USART_GetFlagStatus
    led.o(.text) refers to stm32f10x_rcc.o(.text) for RCC_APB2PeriphClockCmd
    led.o(.text) refers to stm32f10x_gpio.o(.text) for GPIO_Init
    systick.o(.text) refers to system_stm32f10x.o(.data) for SystemCoreClock
==============================================================================

Removing Unused input sections from the image.

    Removing usart.o(.text), (48 bytes).
    Removing usart.o(.text), (32 bytes).
    Removing systick.o(.text), (36 bytes).
    Removing systick.o(.text), (44 bytes).
    Removing misc.o(.text), (20 bytes).
    Removing misc.o(.text), (20 bytes).
    Removing misc.o(.text), (32 bytes).
    Removing misc.o(.text), (40 bytes).
    Removing stm32f10x_dbgmcu.o(.text), (12 bytes).
    Removing stm32f10x_dbgmcu.o(.text), (16 bytes).
    Removing stm32f10x_dbgmcu.o(.text), (32 bytes).
    Removing stm32f10x_exti.o(.text), (36 bytes).
    Removing stm32f10x_exti.o(.text), (148 bytes).
    Removing stm32f10x_exti.o(.text), (16 bytes).
    Removing stm32f10x_exti.o(.text), (16 bytes).
    Removing stm32f10x_exti.o(.text), (24 bytes).
    Removing stm32f10x_exti.o(.text), (12 bytes).
    Removing stm32f10x_exti.o(.text), (40 bytes).
==============================================================================

Image Symbol Table

    Local Symbols

    Symbol Name                              Value     Ov Type        Size  Object(Section)

    ../clib/microlib/division.c              0x00000000   Number         0  uldiv.o ABSOLUTE
    ../clib/microlib/division.c              0x00000000   Number         0  uidiv.o ABSOLUTE
    ../clib/microlib/init/entry.s            0x00000000   Number         0  entry11a.o ABSOLUTE
    ../clib/microlib/init/entry.s            0x00000000   Number         0  entry5.o ABSOLUTE
    ../clib/microlib/init/entry.s            0x00000000   Number         0  entry10b.o ABSOLUTE
    ../clib/microlib/init/entry.s            0x00000000   Number         0  entry7a.o ABSOLUTE
    ../clib/microlib/init/entry.s            0x00000000   Number         0  entry10a.o ABSOLUTE
    ../clib/microlib/init/entry.s            0x00000000   Number         0  entry9b.o ABSOLUTE
    ../clib/microlib/init/entry.s            0x00000000   Number         0  entry12a.o ABSOLUTE
    ../clib/microlib/init/entry.s            0x00000000   Number         0  entry9a.o ABSOLUTE
    ../clib/microlib/init/entry.s            0x00000000   Number         0  entry8b.o ABSOLUTE
    ../clib/microlib/init/entry.s            0x00000000   Number         0  entry7b.o ABSOLUTE
    ../clib/microlib/init/entry.s            0x00000000   Number         0  entry12b.o ABSOLUTE
    ../clib/microlib/init/entry.s            0x00000000   Number         0  entry8a.o ABSOLUTE
    ../clib/microlib/init/entry.s            0x00000000   Number         0  entry11b.o ABSOLUTE
    ../clib/microlib/init/entry.s            0x00000000   Number         0  entry.o ABSOLUTE
    ../clib/microlib/init/entry.s            0x00000000   Number         0  entry2.o ABSOLUTE
    ../clib/microlib/longlong.c              0x00000000   Number         0  llsshr.o ABSOLUTE
    ../clib/microlib/longlong.c              0x00000000   Number         0  llushr.o ABSOLUTE
    ../clib/microlib/longlong.c              0x00000000   Number         0  llshl.o ABSOLUTE
    ../clib/microlib/printf/printf.c         0x00000000   Number         0  printf3.o ABSOLUTE
    ../clib/microlib/printf/printf.c         0x00000000   Number         0  printfa.o ABSOLUTE
    ../clib/microlib/printf/printf.c         0x00000000   Number         0  printf8.o ABSOLUTE
    ../clib/microlib/printf/printf.c         0x00000000   Number         0  printf7.o ABSOLUTE
    ../clib/microlib/printf/printf.c         0x00000000   Number         0  printfb.o ABSOLUTE
    ../clib/microlib/printf/printf.c         0x00000000   Number         0  printf0.o ABSOLUTE
    ../clib/microlib/printf/printf.c         0x00000000   Number         0  printf1.o ABSOLUTE
    ../clib/microlib/printf/printf.c         0x00000000   Number         0  printf6.o ABSOLUTE
    ../clib/microlib/printf/printf.c         0x00000000   Number         0  printf5.o ABSOLUTE
    ../clib/microlib/printf/printf.c         0x00000000   Number         0  printf4.o ABSOLUTE
    ../clib/microlib/printf/printf.c         0x00000000   Number         0  printf2.o ABSOLUTE
    ../clib/microlib/printf/stubs.s          0x00000000   Number         0  stubs.o ABSOLUTE
    ../clib/microlib/stdio/streams.c         0x00000000   Number         0  stdout.o ABSOLUTE
    ../clib/microlib/stdlib/rand.c           0x00000000   Number         0  rand.o ABSOLUTE
    ../clib/microlib/stubs.s                 0x00000000   Number         0  iusefp.o ABSOLUTE
    ../fplib/microlib/fpadd.c                0x00000000   Number         0  dadd.o ABSOLUTE
    ../fplib/microlib/fpdiv.c                0x00000000   Number         0  ddiv.o ABSOLUTE
    ../fplib/microlib/fpepilogue.c           0x00000000   Number         0  depilogue.o ABSOLUTE
    ../fplib/microlib/fpfix.c                0x00000000   Number         0  dfixul.o ABSOLUTE
    ../fplib/microlib/fpmul.c                0x00000000   Number         0  dmul.o ABSOLUTE
    ..\BSP\LED\Led.c                         0x00000000   Number         0  led.o ABSOLUTE
    ..\BSP\SysTick\SysTick.c                 0x00000000   Number         0  systick.o ABSOLUTE
    ..\BSP\USART\usart.c                     0x00000000   Number         0  usart.o ABSOLUTE
    ..\CMSIS\core_cm3.c                      0x00000000   Number         0  core_cm3.o ABSOLUTE
    ..\CMSIS\startup\arm\startup_stm32f10x_md.s 0x00000000   Number         0  startup_stm32f10x_md.o ABSOLUTE
    ..\CMSIS\system_stm32f10x.c              0x00000000   Number         0  system_stm32f10x.o ABSOLUTE
    ..\LIB\src\misc.c                        0x00000000   Number         0  misc.o ABSOLUTE
    ..\LIB\src\stm32f10x_dbgmcu.c            0x00000000   Number         0  stm32f10x_dbgmcu.o ABSOLUTE
    ..\LIB\src\stm32f10x_exti.c              0x00000000   Number         0  stm32f10x_exti.o ABSOLUTE
    ..\LIB\src\stm32f10x_gpio.c              0x00000000   Number         0  stm32f10x_gpio.o ABSOLUTE
    ..\LIB\src\stm32f10x_rcc.c               0x00000000   Number         0  stm32f10x_rcc.o ABSOLUTE
    ..\LIB\src\stm32f10x_usart.c             0x00000000   Number         0  stm32f10x_usart.o ABSOLUTE
    ..\\CMSIS\\core_cm3.c                    0x00000000   Number         0  core_cm3.o ABSOLUTE
    cdrcmple.s                               0x00000000   Number         0  cdrcmple.o ABSOLUTE
    dc.s                                     0x00000000   Number         0  dc.o ABSOLUTE
    handlers.s                               0x00000000   Number         0  handlers.o ABSOLUTE
    init.s                                   0x00000000   Number         0  init.o ABSOLUTE
    main.c                                   0x00000000   Number         0  main.o ABSOLUTE
    stm32f10x_it.c                           0x00000000   Number         0  stm32f10x_it.o ABSOLUTE
    RESET                                    0x08004000   Section      236  startup_stm32f10x_md.o(RESET)
    .ARM.Collect$$$$00000000                 0x080040ec   Section        0  entry.o(.ARM.Collect$$$$00000000)
    .ARM.Collect$$$$00000001                 0x080040ec   Section        4  entry2.o(.ARM.Collect$$$$00000001)
    .ARM.Collect$$$$00000004                 0x080040f0   Section        4  entry5.o(.ARM.Collect$$$$00000004)
    .ARM.Collect$$$$00000008                 0x080040f4   Section        0  entry7b.o(.ARM.Collect$$$$00000008)
    .ARM.Collect$$$$0000000A                 0x080040f4   Section        0  entry8b.o(.ARM.Collect$$$$0000000A)
    .ARM.Collect$$$$0000000B                 0x080040f4   Section        8  entry9a.o(.ARM.Collect$$$$0000000B)
    .ARM.Collect$$$$0000000E                 0x080040fc   Section        4  entry12b.o(.ARM.Collect$$$$0000000E)
    .ARM.Collect$$$$0000000F                 0x08004100   Section        0  entry10a.o(.ARM.Collect$$$$0000000F)
    .ARM.Collect$$$$00000011                 0x08004100   Section        0  entry11a.o(.ARM.Collect$$$$00000011)
    .ARM.Collect$$$$00002712                 0x08004100   Section        4  entry2.o(.ARM.Collect$$$$00002712)
    __lit__00000000                          0x08004100   Data           4  entry2.o(.ARM.Collect$$$$00002712)
    .text                                    0x08004104   Section        0  main.o(.text)
    .text                                    0x080041a0   Section        0  stm32f10x_it.o(.text)
    .text                                    0x080041c0   Section        0  usart.o(.text)
    .text                                    0x08004330   Section        0  led.o(.text)
    .text                                    0x08004398   Section        0  systick.o(.text)
    .text                                    0x08004460   Section        0  misc.o(.text)
    .text                                    0x080044d0   Section        0  stm32f10x_gpio.o(.text)
    .text                                    0x080045f0   Section        0  stm32f10x_usart.o(.text)
    .text                                    0x08004850   Section        0  stm32f10x_rcc.o(.text)
    .text                                    0x08004974   Section        0  system_stm32f10x.o(.text)
    SetSysClockTo72                          0x080049d5   Thumb Code   214  system_stm32f10x.o(.text)
    SetSysClock                              0x08004aab   Thumb Code     8  system_stm32f10x.o(.text)
    .text                                    0x08004abc   Section       36  startup_stm32f10x_md.o(.text)
    .text                                    0x08004ae0   Section        0  rand.o(.text)
    .text                                    0x08004b04   Section        0  uidiv.o(.text)
    .text                                    0x08004b30   Section       36  init.o(.text)
    i.__0printf$1                            0x08004b54   Section        0  printf1.o(i.__0printf$1)
    i.__scatterload_copy                     0x08004b74   Section       14  handlers.o(i.__scatterload_copy)
    i.__scatterload_null                     0x08004b82   Section        2  handlers.o(i.__scatterload_null)
    i.__scatterload_zeroinit                 0x08004b84   Section       14  handlers.o(i.__scatterload_zeroinit)
    i._printf_core                           0x08004b94   Section        0  printf1.o(i._printf_core)
    _printf_core                             0x08004b95   Thumb Code   336  printf1.o(i._printf_core)
    .data                                    0x20000000   Section        2  main.o(.data)
    .data                                    0x20000002   Section        4  usart.o(.data)
    .data                                    0x20000008   Section        4  systick.o(.data)
    SysTickDelayTime                         0x20000008   Data           4  systick.o(.data)
    .data                                    0x2000000c   Section       20  stm32f10x_rcc.o(.data)
    APBAHBPrescTable                         0x2000000c   Data          16  stm32f10x_rcc.o(.data)
    ADCPrescTable                            0x2000001c   Data           4  stm32f10x_rcc.o(.data)
    .data                                    0x20000020   Section       20  system_stm32f10x.o(.data)
    .data                                    0x20000034   Section        4  rand.o(.data)
    _rand_state                              0x20000034   Data           4  rand.o(.data)
    .data                                    0x20000038   Section        4  stdout.o(.data)
    .bss                                     0x2000003c   Section      200  usart.o(.bss)
    STACK                                    0x20000108   Section     1024  startup_stm32f10x_md.o(STACK)

    Global Symbols

    Symbol Name                              Value     Ov Type        Size  Object(Section)

    BuildAttributes$$THM_ISAv4$P$D$K$B$S$PE$A:L22UL41UL21$X:L11$S22US41US21$IEEE1$IW$USESV6$~STKCKD$USESV7$~SHL$OSPACE$ROPI$EBA8$MICROLIB$REQ8$PRES8$EABIv2 0x00000000   Number         0  anon$$obj.o ABSOLUTE
    __ARM_use_no_argv                        0x00000000   Number         0  main.o ABSOLUTE
    _printf_a                                0x00000000   Number         0  stubs.o ABSOLUTE
    _printf_c                                0x00000000   Number         0  stubs.o ABSOLUTE
    _printf_charcount                        0x00000000   Number         0  stubs.o ABSOLUTE
    _printf_d                                0x00000000   Number         0  stubs.o ABSOLUTE
    _printf_e                                0x00000000   Number         0  stubs.o ABSOLUTE
    _printf_f                                0x00000000   Number         0  stubs.o ABSOLUTE
    _printf_flags                            0x00000000   Number         0  stubs.o ABSOLUTE
    _printf_fp_dec                           0x00000000   Number         0  stubs.o ABSOLUTE
    _printf_fp_hex                           0x00000000   Number         0  stubs.o ABSOLUTE
    _printf_g                                0x00000000   Number         0  stubs.o ABSOLUTE
    _printf_i                                0x00000000   Number         0  stubs.o ABSOLUTE
    _printf_int_dec                          0x00000000   Number         0  stubs.o ABSOLUTE
    _printf_l                                0x00000000   Number         0  stubs.o ABSOLUTE
    _printf_lc                               0x00000000   Number         0  stubs.o ABSOLUTE
    _printf_ll                               0x00000000   Number         0  stubs.o ABSOLUTE
    _printf_lld                              0x00000000   Number         0  stubs.o ABSOLUTE
    _printf_lli                              0x00000000   Number         0  stubs.o ABSOLUTE
    _printf_llo                              0x00000000   Number         0  stubs.o ABSOLUTE
    _printf_llu                              0x00000000   Number         0  stubs.o ABSOLUTE
    _printf_llx                              0x00000000   Number         0  stubs.o ABSOLUTE
    _printf_longlong_dec                     0x00000000   Number         0  stubs.o ABSOLUTE
    _printf_longlong_hex                     0x00000000   Number         0  stubs.o ABSOLUTE
    _printf_longlong_oct                     0x00000000   Number         0  stubs.o ABSOLUTE
    _printf_ls                               0x00000000   Number         0  stubs.o ABSOLUTE
    _printf_mbtowc                           0x00000000   Number         0  stubs.o ABSOLUTE
    _printf_n                                0x00000000   Number         0  stubs.o ABSOLUTE
    _printf_o                                0x00000000   Number         0  stubs.o ABSOLUTE
    _printf_p                                0x00000000   Number         0  stubs.o ABSOLUTE
    _printf_percent                          0x00000000   Number         0  stubs.o ABSOLUTE
    _printf_pre_padding                      0x00000000   Number         0  stubs.o ABSOLUTE
    _printf_return_value                     0x00000000   Number         0  stubs.o ABSOLUTE
    _printf_s                                0x00000000   Number         0  stubs.o ABSOLUTE
    _printf_sizespec                         0x00000000   Number         0  stubs.o ABSOLUTE
    _printf_str                              0x00000000   Number         0  stubs.o ABSOLUTE
    _printf_truncate_signed                  0x00000000   Number         0  stubs.o ABSOLUTE
    _printf_truncate_unsigned                0x00000000   Number         0  stubs.o ABSOLUTE
    _printf_u                                0x00000000   Number         0  stubs.o ABSOLUTE
    _printf_wc                               0x00000000   Number         0  stubs.o ABSOLUTE
    _printf_wctomb                           0x00000000   Number         0  stubs.o ABSOLUTE
    _printf_widthprec                        0x00000000   Number         0  stubs.o ABSOLUTE
    _printf_x                                0x00000000   Number         0  stubs.o ABSOLUTE
    __arm_fini_                               - Undefined Weak Reference
    __cpp_initialize__aeabi_                  - Undefined Weak Reference
    __cxa_finalize                            - Undefined Weak Reference
    __decompress                              - Undefined Weak Reference
    _clock_init                               - Undefined Weak Reference
    _microlib_exit                            - Undefined Weak Reference
    __Vectors_Size                           0x000000ec   Number         0  startup_stm32f10x_md.o ABSOLUTE
    __Vectors                                0x08004000   Data           4  startup_stm32f10x_md.o(RESET)
    __Vectors_End                            0x080040ec   Data           0  startup_stm32f10x_md.o(RESET)
    __main                                   0x080040ed   Thumb Code     0  entry.o(.ARM.Collect$$$$00000000)
    _main_stk                                0x080040ed   Thumb Code     0  entry2.o(.ARM.Collect$$$$00000001)
    _main_scatterload                        0x080040f1   Thumb Code     0  entry5.o(.ARM.Collect$$$$00000004)
    __main_after_scatterload                 0x080040f5   Thumb Code     0  entry5.o(.ARM.Collect$$$$00000004)
    _main_clock                              0x080040f5   Thumb Code     0  entry7b.o(.ARM.Collect$$$$00000008)
    _main_cpp_init                           0x080040f5   Thumb Code     0  entry8b.o(.ARM.Collect$$$$0000000A)
    _main_init                               0x080040f5   Thumb Code     0  entry9a.o(.ARM.Collect$$$$0000000B)
    __rt_lib_shutdown_fini                   0x080040fd   Thumb Code     0  entry12b.o(.ARM.Collect$$$$0000000E)
    __rt_final_cpp                           0x08004101   Thumb Code     0  entry10a.o(.ARM.Collect$$$$0000000F)
    __rt_final_exit                          0x08004101   Thumb Code     0  entry11a.o(.ARM.Collect$$$$00000011)
    main                                     0x08004105   Thumb Code   100  main.o(.text)
    NMI_Handler                              0x080041a1   Thumb Code     2  stm32f10x_it.o(.text)
    HardFault_Handler                        0x080041a3   Thumb Code     4  stm32f10x_it.o(.text)
    MemManage_Handler                        0x080041a7   Thumb Code     4  stm32f10x_it.o(.text)
    BusFault_Handler                         0x080041ab   Thumb Code     4  stm32f10x_it.o(.text)
    UsageFault_Handler                       0x080041af   Thumb Code     4  stm32f10x_it.o(.text)
    SVC_Handler                              0x080041b3   Thumb Code     2  stm32f10x_it.o(.text)
    DebugMon_Handler                         0x080041b5   Thumb Code     2  stm32f10x_it.o(.text)
    PendSV_Handler                           0x080041b7   Thumb Code     2  stm32f10x_it.o(.text)
    SysTick_Handler                          0x080041b9   Thumb Code     8  stm32f10x_it.o(.text)
    USART1_Init_Config                       0x080041c1   Thumb Code   168  usart.o(.text)
    USART1_IRQHandler                        0x08004269   Thumb Code   128  usart.o(.text)
    fputc                                    0x080042e9   Thumb Code    52  usart.o(.text)
    LED_GPIO_Config                          0x08004331   Thumb Code    68  led.o(.text)
    LED4_ON                                  0x08004375   Thumb Code    14  led.o(.text)
    LED4_OFF                                 0x08004383   Thumb Code    14  led.o(.text)
    SysTick_Init_Config                      0x08004399   Thumb Code   108  systick.o(.text)
    delay_ms                                 0x08004405   Thumb Code    56  systick.o(.text)
    SysTickDelayTime_Counter                 0x0800443d   Thumb Code    18  systick.o(.text)
    NVIC_Init                                0x08004461   Thumb Code   100  misc.o(.text)
    GPIO_Init                                0x080044d1   Thumb Code   278  stm32f10x_gpio.o(.text)
    GPIO_SetBits                             0x080045e7   Thumb Code     4  stm32f10x_gpio.o(.text)
    GPIO_ResetBits                           0x080045eb   Thumb Code     4  stm32f10x_gpio.o(.text)
    USART_DeInit                             0x080045f1   Thumb Code   134  stm32f10x_usart.o(.text)
    USART_Init                               0x08004677   Thumb Code   210  stm32f10x_usart.o(.text)
    USART_Cmd                                0x08004749   Thumb Code    24  stm32f10x_usart.o(.text)
    USART_ITConfig                           0x08004761   Thumb Code    74  stm32f10x_usart.o(.text)
    USART_SendData                           0x080047ab   Thumb Code     8  stm32f10x_usart.o(.text)
    USART_ReceiveData                        0x080047b3   Thumb Code    10  stm32f10x_usart.o(.text)
    USART_GetFlagStatus                      0x080047bd   Thumb Code    26  stm32f10x_usart.o(.text)
    USART_ClearFlag                          0x080047d7   Thumb Code    18  stm32f10x_usart.o(.text)
    USART_GetITStatus                        0x080047e9   Thumb Code    84  stm32f10x_usart.o(.text)
    RCC_GetClocksFreq                        0x08004851   Thumb Code   192  stm32f10x_rcc.o(.text)
    RCC_APB2PeriphClockCmd                   0x08004911   Thumb Code    26  stm32f10x_rcc.o(.text)
    RCC_APB2PeriphResetCmd                   0x0800492b   Thumb Code    26  stm32f10x_rcc.o(.text)
    RCC_APB1PeriphResetCmd                   0x08004945   Thumb Code    26  stm32f10x_rcc.o(.text)
    SystemInit                               0x08004975   Thumb Code    96  system_stm32f10x.o(.text)
    Reset_Handler                            0x08004abd   Thumb Code     8  startup_stm32f10x_md.o(.text)
    ADC1_2_IRQHandler                        0x08004ad7   Thumb Code     0  startup_stm32f10x_md.o(.text)
    CAN1_RX1_IRQHandler                      0x08004ad7   Thumb Code     0  startup_stm32f10x_md.o(.text)
    CAN1_SCE_IRQHandler                      0x08004ad7   Thumb Code     0  startup_stm32f10x_md.o(.text)
    DMA1_Channel1_IRQHandler                 0x08004ad7   Thumb Code     0  startup_stm32f10x_md.o(.text)
    DMA1_Channel2_IRQHandler                 0x08004ad7   Thumb Code     0  startup_stm32f10x_md.o(.text)
    DMA1_Channel3_IRQHandler                 0x08004ad7   Thumb Code     0  startup_stm32f10x_md.o(.text)
    DMA1_Channel4_IRQHandler                 0x08004ad7   Thumb Code     0  startup_stm32f10x_md.o(.text)
    DMA1_Channel5_IRQHandler                 0x08004ad7   Thumb Code     0  startup_stm32f10x_md.o(.text)
    DMA1_Channel6_IRQHandler                 0x08004ad7   Thumb Code     0  startup_stm32f10x_md.o(.text)
    DMA1_Channel7_IRQHandler                 0x08004ad7   Thumb Code     0  startup_stm32f10x_md.o(.text)
    EXTI0_IRQHandler                         0x08004ad7   Thumb Code     0  startup_stm32f10x_md.o(.text)
    EXTI15_10_IRQHandler                     0x08004ad7   Thumb Code     0  startup_stm32f10x_md.o(.text)
    EXTI1_IRQHandler                         0x08004ad7   Thumb Code     0  startup_stm32f10x_md.o(.text)
    EXTI2_IRQHandler                         0x08004ad7   Thumb Code     0  startup_stm32f10x_md.o(.text)
    EXTI3_IRQHandler                         0x08004ad7   Thumb Code     0  startup_stm32f10x_md.o(.text)
    EXTI4_IRQHandler                         0x08004ad7   Thumb Code     0  startup_stm32f10x_md.o(.text)
    EXTI9_5_IRQHandler                       0x08004ad7   Thumb Code     0  startup_stm32f10x_md.o(.text)
    FLASH_IRQHandler                         0x08004ad7   Thumb Code     0  startup_stm32f10x_md.o(.text)
    I2C1_ER_IRQHandler                       0x08004ad7   Thumb Code     0  startup_stm32f10x_md.o(.text)
    I2C1_EV_IRQHandler                       0x08004ad7   Thumb Code     0  startup_stm32f10x_md.o(.text)
    I2C2_ER_IRQHandler                       0x08004ad7   Thumb Code     0  startup_stm32f10x_md.o(.text)
    I2C2_EV_IRQHandler                       0x08004ad7   Thumb Code     0  startup_stm32f10x_md.o(.text)
    PVD_IRQHandler                           0x08004ad7   Thumb Code     0  startup_stm32f10x_md.o(.text)
    RCC_IRQHandler                           0x08004ad7   Thumb Code     0  startup_stm32f10x_md.o(.text)
    RTCAlarm_IRQHandler                      0x08004ad7   Thumb Code     0  startup_stm32f10x_md.o(.text)
    RTC_IRQHandler                           0x08004ad7   Thumb Code     0  startup_stm32f10x_md.o(.text)
    SPI1_IRQHandler                          0x08004ad7   Thumb Code     0  startup_stm32f10x_md.o(.text)
    SPI2_IRQHandler                          0x08004ad7   Thumb Code     0  startup_stm32f10x_md.o(.text)
    TAMPER_IRQHandler                        0x08004ad7   Thumb Code     0  startup_stm32f10x_md.o(.text)
    TIM1_BRK_IRQHandler                      0x08004ad7   Thumb Code     0  startup_stm32f10x_md.o(.text)
    TIM1_CC_IRQHandler                       0x08004ad7   Thumb Code     0  startup_stm32f10x_md.o(.text)
    TIM1_TRG_COM_IRQHandler                  0x08004ad7   Thumb Code     0  startup_stm32f10x_md.o(.text)
    TIM1_UP_IRQHandler                       0x08004ad7   Thumb Code     0  startup_stm32f10x_md.o(.text)
    TIM2_IRQHandler                          0x08004ad7   Thumb Code     0  startup_stm32f10x_md.o(.text)
    TIM3_IRQHandler                          0x08004ad7   Thumb Code     0  startup_stm32f10x_md.o(.text)
    TIM4_IRQHandler                          0x08004ad7   Thumb Code     0  startup_stm32f10x_md.o(.text)
    USART2_IRQHandler                        0x08004ad7   Thumb Code     0  startup_stm32f10x_md.o(.text)
    USART3_IRQHandler                        0x08004ad7   Thumb Code     0  startup_stm32f10x_md.o(.text)
    USBWakeUp_IRQHandler                     0x08004ad7   Thumb Code     0  startup_stm32f10x_md.o(.text)
    USB_HP_CAN1_TX_IRQHandler                0x08004ad7   Thumb Code     0  startup_stm32f10x_md.o(.text)
    USB_LP_CAN1_RX0_IRQHandler               0x08004ad7   Thumb Code     0  startup_stm32f10x_md.o(.text)
    WWDG_IRQHandler                          0x08004ad7   Thumb Code     0  startup_stm32f10x_md.o(.text)
    rand                                     0x08004ae1   Thumb Code    20  rand.o(.text)
    srand                                    0x08004af5   Thumb Code     6  rand.o(.text)
    __aeabi_uidiv                            0x08004b05   Thumb Code     0  uidiv.o(.text)
    __aeabi_uidivmod                         0x08004b05   Thumb Code    44  uidiv.o(.text)
    __scatterload                            0x08004b31   Thumb Code    28  init.o(.text)
    __scatterload_rt2                        0x08004b31   Thumb Code     0  init.o(.text)
    __0printf$1                              0x08004b55   Thumb Code    22  printf1.o(i.__0printf$1)
    __1printf$1                              0x08004b55   Thumb Code     0  printf1.o(i.__0printf$1)
    __2printf                                0x08004b55   Thumb Code     0  printf1.o(i.__0printf$1)
    __scatterload_copy                       0x08004b75   Thumb Code    14  handlers.o(i.__scatterload_copy)
    __scatterload_null                       0x08004b83   Thumb Code     2  handlers.o(i.__scatterload_null)
    __scatterload_zeroinit                   0x08004b85   Thumb Code    14  handlers.o(i.__scatterload_zeroinit)
    Region$$Table$$Base                      0x08004ce8   Number         0  anon$$obj.o(Region$$Table)
    Region$$Table$$Limit                     0x08004d08   Number         0  anon$$obj.o(Region$$Table)
    u16_rand                                 0x20000000   Data           2  main.o(.data)
    Usart1_R_State                           0x20000002   Data           1  usart.o(.data)
    Usart1_R_Count                           0x20000004   Data           2  usart.o(.data)
    SystemCoreClock                          0x20000020   Data           4  system_stm32f10x.o(.data)
    AHBPrescTable                            0x20000024   Data          16  system_stm32f10x.o(.data)
    __stdout                                 0x20000038   Data           4  stdout.o(.data)
    Usart1_R_Buff                            0x2000003c   Data         200  usart.o(.bss)
    __initial_sp                             0x20000508   Data           0  startup_stm32f10x_md.o(STACK)



==============================================================================

Memory Map of the image

  Image Entry point : 0x080040ed

  Load Region LR_IROM1 (Base: 0x08004000, Size: 0x00000d44, Max: 0x00008000, ABSOLUTE)

    Execution Region ER_IROM1 (Exec base: 0x08004000, Load base: 0x08004000, Size: 0x00000d08, Max: 0x00008000, ABSOLUTE)

    Exec Addr    Load Addr    Size         Type   Attr      Idx    E Section Name        Object

    0x08004000   0x08004000   0x000000ec   Data   RO          776    RESET               startup_stm32f10x_md.o
    0x080040ec   0x080040ec   0x00000000   Code   RO          781  * .ARM.Collect$$$$00000000  mc_w.l(entry.o)
    0x080040ec   0x080040ec   0x00000004   Code   RO         1048    .ARM.Collect$$$$00000001  mc_w.l(entry2.o)
    0x080040f0   0x080040f0   0x00000004   Code   RO         1051    .ARM.Collect$$$$00000004  mc_w.l(entry5.o)
    0x080040f4   0x080040f4   0x00000000   Code   RO         1053    .ARM.Collect$$$$00000008  mc_w.l(entry7b.o)
    0x080040f4   0x080040f4   0x00000000   Code   RO         1055    .ARM.Collect$$$$0000000A  mc_w.l(entry8b.o)
    0x080040f4   0x080040f4   0x00000008   Code   RO         1056    .ARM.Collect$$$$0000000B  mc_w.l(entry9a.o)
    0x080040fc   0x080040fc   0x00000004   Code   RO         1063    .ARM.Collect$$$$0000000E  mc_w.l(entry12b.o)
    0x08004100   0x08004100   0x00000000   Code   RO         1058    .ARM.Collect$$$$0000000F  mc_w.l(entry10a.o)
    0x08004100   0x08004100   0x00000000   Code   RO         1060    .ARM.Collect$$$$00000011  mc_w.l(entry11a.o)
    0x08004100   0x08004100   0x00000004   Code   RO         1049    .ARM.Collect$$$$00002712  mc_w.l(entry2.o)
    0x08004104   0x08004104   0x0000009c   Code   RO            1    .text               main.o
    0x080041a0   0x080041a0   0x00000020   Code   RO          121    .text               stm32f10x_it.o
    0x080041c0   0x080041c0   0x00000170   Code   RO          136    .text               usart.o
    0x08004330   0x08004330   0x00000068   Code   RO          164    .text               led.o
    0x08004398   0x08004398   0x000000c8   Code   RO          179    .text               systick.o
    0x08004460   0x08004460   0x00000070   Code   RO          210    .text               misc.o
    0x080044d0   0x080044d0   0x0000011e   Code   RO          325    .text               stm32f10x_gpio.o
    0x080045ee   0x080045ee   0x00000002   PAD
    0x080045f0   0x080045f0   0x00000260   Code   RO          425    .text               stm32f10x_usart.o
    0x08004850   0x08004850   0x00000124   Code   RO          577    .text               stm32f10x_rcc.o
    0x08004974   0x08004974   0x00000148   Code   RO          750    .text               system_stm32f10x.o
    0x08004abc   0x08004abc   0x00000024   Code   RO          777    .text               startup_stm32f10x_md.o
    0x08004ae0   0x08004ae0   0x00000024   Code   RO          784    .text               mc_w.l(rand.o)
    0x08004b04   0x08004b04   0x0000002c   Code   RO         1065    .text               mc_w.l(uidiv.o)
    0x08004b30   0x08004b30   0x00000024   Code   RO         1080    .text               mc_w.l(init.o)
    0x08004b54   0x08004b54   0x00000020   Code   RO          832    i.__0printf$1       mc_w.l(printf1.o)
    0x08004b74   0x08004b74   0x0000000e   Code   RO         1092    i.__scatterload_copy  mc_w.l(handlers.o)
    0x08004b82   0x08004b82   0x00000002   Code   RO         1093    i.__scatterload_null  mc_w.l(handlers.o)
    0x08004b84   0x08004b84   0x0000000e   Code   RO         1094    i.__scatterload_zeroinit  mc_w.l(handlers.o)
    0x08004b92   0x08004b92   0x00000002   PAD
    0x08004b94   0x08004b94   0x00000154   Code   RO          839    i._printf_core      mc_w.l(printf1.o)
    0x08004ce8   0x08004ce8   0x00000020   Data   RO         1090    Region$$Table       anon$$obj.o


    Execution Region RW_IRAM1 (Exec base: 0x20000000, Load base: 0x08004d08, Size: 0x00000508, Max: 0x00005000, ABSOLUTE)

    Exec Addr    Load Addr    Size         Type   Attr      Idx    E Section Name        Object

    0x20000000   0x08004d08   0x00000002   Data   RW            2    .data               main.o
    0x20000002   0x08004d0a   0x00000004   Data   RW          140    .data               usart.o
    0x20000006   0x08004d0e   0x00000002   PAD
    0x20000008   0x08004d10   0x00000004   Data   RW          182    .data               systick.o
    0x2000000c   0x08004d14   0x00000014   Data   RW          586    .data               stm32f10x_rcc.o
    0x20000020   0x08004d28   0x00000014   Data   RW          752    .data               system_stm32f10x.o
    0x20000034   0x08004d3c   0x00000004   Data   RW          785    .data               mc_w.l(rand.o)
    0x20000038   0x08004d40   0x00000004   Data   RW         1064    .data               mc_w.l(stdout.o)
    0x2000003c        -       0x000000c8   Zero   RW          139    .bss                usart.o
    0x20000104   0x08004d44   0x00000004   PAD
    0x20000108        -       0x00000400   Zero   RW          774    STACK               startup_stm32f10x_md.o


==============================================================================

Image component sizes


      Code (inc. data)   RO Data    RW Data    ZI Data      Debug   Object Name

         0          0          0          0          0         32   core_cm3.o
       104          8          0          0          0        715   led.o
       156         56          0          2          0     232846   main.o
       112         12          0          0          0        940   misc.o
        36          8        236          0       1024        812   startup_stm32f10x_md.o
       286          0          0          0          0       2276   stm32f10x_gpio.o
        32          0          0          0          0       1262   stm32f10x_it.o
       292         22          0         20          0       3821   stm32f10x_rcc.o
       608         20          0          0          0       4410   stm32f10x_usart.o
       328         10          0         20          0       1557   system_stm32f10x.o
       200         18          0          4          0      16315   systick.o
       368         20          0          4        200       1831   usart.o

    ----------------------------------------------------------------------
      2524        174        268         52       1228     266817   Object Totals
         0          0         32          0          0          0   (incl. Generated)
         2          0          0          2          4          0   (incl. Padding)

    ----------------------------------------------------------------------

      Code (inc. data)   RO Data    RW Data    ZI Data      Debug   Library Member Name

         0          0          0          0          0          0   entry.o
         0          0          0          0          0          0   entry10a.o
         0          0          0          0          0          0   entry11a.o
         4          0          0          0          0          0   entry12b.o
         8          4          0          0          0          0   entry2.o
         4          0          0          0          0          0   entry5.o
         0          0          0          0          0          0   entry7b.o
         0          0          0          0          0          0   entry8b.o
         8          4          0          0          0          0   entry9a.o
        30          0          0          0          0          0   handlers.o
        36          8          0          0          0         68   init.o
       372         14          0          0          0        184   printf1.o
        36         10          0          4          0        136   rand.o
         0          0          0          4          0          0   stdout.o
        44          0          0          0          0         80   uidiv.o

    ----------------------------------------------------------------------
       544         40          0          8          0        468   Library Totals
         2          0          0          0          0          0   (incl. Padding)

    ----------------------------------------------------------------------

      Code (inc. data)   RO Data    RW Data    ZI Data      Debug   Library Name

       542         40          0          8          0        468   mc_w.l

    ----------------------------------------------------------------------
       544         40          0          8          0        468   Library Totals

    ----------------------------------------------------------------------

==============================================================================


      Code (inc. data)   RO Data    RW Data    ZI Data      Debug   

      3068        214        268         60       1228     266709   Grand Totals
      3068        214        268         60       1228     266709   ELF Image Totals
      3068        214        268         60          0          0   ROM Totals

==============================================================================

    Total RO  Size (Code + RO Data)                 3336 (   3.26kB)
    Total RW  Size (RW Data + ZI Data)              1288 (   1.26kB)
    Total ROM Size (Code + RO Data + RW Data)       3396 (   3.32kB)

==============================================================================

