:020000040800F2
:1040000008050020BD4A0008A1410008A34100089E
:10401000A7410008AB410008AF41000800000000C4
:10402000000000000000000000000000B341000894
:10403000B541000800000000B7410008B941000880
:10404000D74A0008D74A0008D74A0008D74A0008CC
:10405000D74A0008D74A0008D74A0008D74A0008BC
:10406000D74A0008D74A0008D74A0008D74A0008AC
:10407000D74A0008D74A0008D74A0008D74A00089C
:10408000D74A0008D74A0008D74A0008D74A00088C
:10409000D74A0008D74A0008D74A0008D74A00087C
:1040A000D74A0008D74A0008D74A0008D74A00086C
:1040B000D74A0008D74A0008D74A0008D74A00085C
:1040C000D74A0008D74A0008D74A0008D74A00084C
:1040D000D74A000869420008D74A0008D74A0008B2
:1040E000D74A0008D74A0008D74A0008DFF810D09E
:1040F00000F01EFD0048004705410008AFF30080B6
:104100000805002000F048F94FF4E13000F058F8BD
:1041100000F00EF900F0E4FC1349088013A000F051
:1041200019FD1148018816A000F014FD1BE00E488F
:104130000088401C80B20C4908801E2190FBF1F2DF
:1041400001FB120010B914A000F004FD13A000F050
:1041500001FD00F00FF9642000F054F900F011F9AE
:10416000642000F04FF9E2E7000000200D0A5354EC
:104170004D33325F4150505F76313230390D0A0095
:1041800048656C6C6F204775616E4A696E21205BD3
:1041900025645D0D0A0000000D0A00002D000000DE
:1041A000704700BFFEE700BFFEE700BFFEE700BFAD
:1041B000FEE770477047704710B500F03FF910BD3B
:1041C00010B586B00446012144F2040000F0A0FBC3
:1041D000524800F00DFA4FF40070ADF814001820AA
:1041E0008DF8170003208DF8160005A94C4800F043
:1041F0006FF94FF48060ADF8140004208DF81700BB
:1042000005A9474800F064F901940020ADF80800C2
:10421000ADF80A00ADF80C00ADF810000C20ADF8B8
:104220000E0001A93D4800F026FA25208DF8000077
:1042300001208DF8010000208DF8020001208DF88A
:104240000300684600F00CF9012240F22551334882
:1042500000F086FA0121314800F076FA40212F481B
:1042600000F0B9FA06B010BD10B5002440F2255197
:104270002A4800F0B9FA002835D0284800F099FA09
:10428000C4B228490888411C264A118026490C548A
:104290002648007828B90D2C12D102202349087035
:1042A0000EE02248007802280AD10A2C03D101200E
:1042B0001E49087004E000201C4908701949088054
:1042C00018480088C8280EDB174890F8C6000D284B
:1042D00004D1154890F8C7000A2804D000201149DD
:1042E00008801249087010BD70B504460D464FF4A1
:1042F00000600B4910310860E1B2084800F055FA3F
:1043000000BF4021054800F059FA0028F9D04FF4C9
:104310000060034914310860204670BD0038014038
:1043200000080140040000203C00002002000020A2
:1043300008B50121102000F0EBFA4FF40060ADF851
:10434000000010208DF8030003208DF8020069465C
:104350000F4800F0BDF84FF40050ADF800001420F5
:104360008DF8030003208DF802006946094800F02B
:10437000AFF808BD10B54FF40051064800F033F90E
:1043800010BD10B54FF40051024800F02EF910BDD9
:10439000000801400010014030B500BF2C48006803
:1043A0004FF47A72B0FBF2F1B1F1807F01D30120BA
:1043B0001DE021F07F40401E4FF0E0225061501779
:1043C0000F22002807DA13071D0E224B00F00F04FE
:1043D000241F1D5503E013071C0E1F4B1C5400BF68
:1043E00000204FF0E022906107201061002000289B
:1043F000D4D14FF0E020006920F001004FF0E0211F
:10440000086130BD014642F228324A434FF0E023B2
:104410005A6100229A6101221A6100BF4FF0E02226
:10442000106900F001021AB100F48032002AF5D0C0
:1044300000224FF0E0231A619A6170470748006834
:1044400020B106480068401E04490860704700001B
:104450002000002018ED00E000E400E0080000204B
:1044600070B5002100230F22C47804B3154C2468D2
:1044700004F4E064C4F5E064210AC1F10403CA4015
:10448000447804FA03F184781440214309010E4C66
:104490000678A155047804F01F050124AC40057886
:1044A0006D11AD0005F1E025C5F8004109E0047883
:1044B00004F01F050124AC40044D0678761145F840
:1044C000264070BD0CED00E000E400E080E100E07B
:1044D0002DE9F0410246002500260020002300249B
:1044E000002791F803C00CF00F0591F803C00CF001
:1044F000100CBCF1000F03D091F802C04CEA050586
:1045000091F800C0BCF1000F31D0146800202BE0FE
:104510004FF0010C0CFA00F3B1F800C00CEA0306EE
:104520009E4220D183004FF00F0C0CFA03F7BC43DE
:1045300005FA03FC4CEA040491F803C0BCF1280F0F
:1045400006D14FF0010C0CFA00FCC2F814C00AE0CE
:1045500091F803C0BCF1480F05D14FF0010C0CFAE3
:1045600000FCC2F810C0401C0828D1D31460B1F878
:1045700000C0BCF1FF0F34DD546800202EE000F1D4
:10458000080C4FF0010808FA0CF3B1F800C00CEA6F
:1045900003069E4221D183004FF00F0C0CFA03F763
:1045A000BC4305FA03FC4CEA040491F803C0BCF1D7
:1045B000280F05D100F1080C08FA0CF8C2F8148095
:1045C00091F803C0BCF1480F07D100F1080C4FF07F
:1045D000010808FA0CF8C2F81080401C0828CED355
:1045E0005460BDE8F081016170474161704700008F
:1045F00010B504469148844209D10121880300F096
:1046000094F900214FF4804000F08FF932E08C489B
:10461000844209D10121480400F094F900214FF4AB
:10462000003000F08FF925E08648844209D101214D
:10463000880400F087F900214FF4802000F082F90F
:1046400018E08148844209D10121C80400F07AF9B8
:1046500000214FF4002000F075F90BE07B48844204
:1046600008D10121080500F06DF900214FF48010F8
:1046700000F068F910BD2DE9F04786B005460E46FA
:104680000024A24600BFA1460027B08900B100BFA8
:104690002F462C8A4CF6FF700440F08804432C828D
:1046A000AC894EF6F3100440B08831890843718913
:1046B00008430443AC81AC8A4FF6FF400440B08904
:1046C0000443AC8201A800F0C3F85C48874202D1E1
:1046D000DDF810A001E0DDF80CA0A88900F400408E
:1046E00040B10AEBCA0000EB0A1031684900B0FB88
:1046F000F1F807E00AEBCA0000EB0A103168890004
:10470000B0FBF1F86420B8FBF0F00401200964214B
:1047100001FB1089A88900F4004040B1322000EB71
:10472000C900B0FBF1F000F00700044308E03220BC
:1047300000EB09106421B0FBF1F000F00F0004431E
:104740002C8106B0BDE8F08721B1828942F4005285
:10475000828104E082894DF6FF731A40828170479E
:10476000F0B50346002400260025002040F66A1715
:10477000B94200D100BF1846C1F3421401F01F0630
:10478000012707FA06F5012C01D10C3004E0022CB8
:1047900001D1103000E014301AB107682F430760D0
:1047A00002E00768AF430760F0BDC1F308028280F2
:1047B000704701468888C0F3080070470246002011
:1047C000B1F5007F00D100BF13880B400BB1012071
:1047D00000E00020704701F40072B2F5007F00D1C4
:1047E00000BFCA430280704770B502460024002310
:1047F0000025002040F66A16B14200D100BFC1F387
:10480000421501F01F03012606FA03F3012D02D120
:104810009689334006E0022D02D1168A334001E02A
:10482000968A33400C12012606FA04F416883440A6
:1048300013B10CB1012000E0002070BD0038014030
:104840000044004000480040004C00400050004040
:1048500030B50021002200240023414D6D6805F091
:104860000C0121B1042905D0082923D105E03D4DD3
:10487000056022E03B4D05601FE0394D6D6805F491
:104880007012374D6D6805F48034022505EB9242B5
:104890001CB9354D554305600BE0314D6D6805F48D
:1048A00000351DB1304D5543056002E02D4D554397
:1048B000056002E02B4D056000BF00BF284D6D680C
:1048C00005F0F0010909294D6B5C0568DD40456084
:1048D000234D6D6805F4E061090A244D6B5C456861
:1048E000DD4085601E4D6D6805F46051C90A1F4D9D
:1048F0006B5C4568DD40C560194D6D6805F440414D
:10490000890B1B4D6B5CC568B5FBF3F5056130BDCC
:1049100029B1134A92690243114B9A6104E0104A8B
:10492000926982430E4B9A61704729B10C4AD26852
:1049300002430B4BDA6004E0094AD2688243084B19
:10494000DA60704729B1064A12690243044B1A61C2
:1049500004E0034A12698243014B1A617047000068
:104960000010024000127A0000093D000C000020F7
:104970001C0000204F48006840F001004D490860CD
:104980000846406848600846406840F4E0104860C7
:104990000846406848600846006840F0807008603B
:1049A00000BF4448006800F000700028F9D041487A
:1049B000406820F003003F4948600846406840F0E6
:1049C0000200486000BF3B48406800F00C00082827
:1049D000F9D170470CB5002001900090354800686F
:1049E00040F480303349086000BF3248006800F46A
:1049F000003000900198401C0190009818B901986F
:104A0000B0F5A06FF1D12B48006800F4003010B170
:104A10000120009001E0002000900098012843D17F
:104A20002548006840F010002349086008460068E7
:104A300020F0030008600846006840F002000860AB
:104A40001C4840681B494860084640684860084662
:104A5000406840F4806048600846406820F47C105C
:104A600048600846406840F4E8104860084600681E
:104A700040F08070086000BF0E48006800F00070D1
:104A80000028F9D00B48406820F00300094948602D
:104A90000846406840F00200486000BF0548406892
:104AA00000F00C000828F9D10CBD10B5FFF792FFFB
:104AB00010BD000000100240002002400648804760
:104AC00006480047FEE7FEE7FEE7FEE7FEE7FEE7F3
:104AD000FEE7FEE7FEE7FEE775490008ED40000847
:104AE0000649074A0868504343F2390210440860F7
:104AF00040087047014908607047000034000020FA
:104B00006D4EC64130B50B460146002020220124DF
:104B100009E021FA02F59D4205D303FA02F5491B8B
:104B200004FA02F52844151EA2F10102F1DC30BDA1
:104B3000064C074D06E0E06840F0010394E80700EA
:104B400098471034AC42F6D3FFF7D4FAE84C00088B
:104B5000084D00080FB4054B10B503A9044A02988C
:104B600000F018F810BC5DF814FB0000E9420008E2
:104B70003800002002E008C8121F08C1002AFAD13C
:104B800070477047002001E001C1121F002AFBD1CD
:104B9000704700002DE9FF4F89B09B460446002571
:104BA00006E025280BD05A460B999047641C6D1CD3
:104BB00020780028F5D10DB02846BDE8F08F0027F9
:104BC000B8460122474900E0074314F8013F203B63
:104BD00002FA03F00842F7D120782E2819D114F8F0
:104BE000010F47F004072A280ED06FF02F0220781B
:104BF000A0F1300109290CD808EB880102EB410132
:104C000000EB0108641CF2E70A98641C50F8048B5E
:104C10000A9020780028CED0642808D0692806D0D1
:104C200075281ED05A460B9990476D1C58E00A997A
:104C30004FF00A0901C90A91002802DA40422D21E9
:104C400002E0390504D52B218DF82010012103E065
:104C5000F90704D02021F7E78A4608AE0DE00021CD
:104C6000FAE70A994FF00A0901C90A91F7E749469C
:104C7000FFF748FF303106F8011D0028F7D1ADEBF2
:104C8000060000F12009780701D44FF00108C8455B
:104C900002DDA8EB090000E000208046002706E0C6
:104CA00008A85A46C05D0B9990476D1C7F1C57455C
:104CB000F6DB04E030205A460B9990476D1CB8F1A2
:104CC0000001A8F10108F5DC05E016F8010B5A46D1
:104CD0000B9990476D1CB9F10001A9F10109F4DCB1
:104CE000641C65E709280100084D00080000002049
:104CF0003C000000744B0008444D00083C000020BC
:104D0000CC040000844B00080000000000000000FC
:104D1000000000000000000001020304010203047F
:104D2000060708090204060800A24A040000000061
:104D3000000000000102030406070809000000004B
:044D4000000000006F
:04000005080040EDC2
:00000001FF
